{
  "contractName": "BlockSigner",
  "abi": [
    {
      "anonymous": false,
      "inputs": [
        {
          "indexed": false,
          "name": "_signer",
          "type": "address"
        },
        {
          "indexed": false,
          "name": "_blockNumber",
          "type": "uint256"
        }
      ],
      "name": "Sign",
      "type": "event"
    },
    {
      "constant": false,
      "inputs": [
        {
          "name": "_blockNumber",
          "type": "uint256"
        }
      ],
      "name": "sign",
      "outputs": [],
      "payable": false,
      "stateMutability": "nonpayable",
      "type": "function"
    },
    {
      "constant": true,
      "inputs": [
        {
          "name": "_blockNumber",
          "type": "uint256"
        }
      ],
      "name": "getSigners",
      "outputs": [
        {
          "name": "",
          "type": "address[]"
        }
      ],
      "payable": false,
      "stateMutability": "view",
      "type": "function"
    }
  ],
  "bytecode": "0x608060405234801561001057600080fd5b50610300806100206000396000f30060806040526004361061004c576000357c0100000000000000000000000000000000000000000000000000000000900463ffffffff1680632fb1b25f14610051578063dfceceae1461007e575b600080fd5b34801561005d57600080fd5b5061007c60048036038101908080359060200190929190505050610100565b005b34801561008a57600080fd5b506100a960048036038101908080359060200190929190505050610216565b6040518080602001828103825283818151815260200191508051906020019060200280838360005b838110156100ec5780820151818401526020810190506100d1565b505050509050019250505060405180910390f35b80431015151561010f57600080fd5b6101246107bc826102b690919063ffffffff16565b431115151561013257600080fd5b6000808281526020019081526020016000203390806001815401808255809150509060018203906000526020600020016000909192909190916101000a81548173ffffffffffffffffffffffffffffffffffffffff021916908373ffffffffffffffffffffffffffffffffffffffff160217905550507f9a10b6124411386407c4a174729b856d293832181c352e98b5cb316b96cd30593382604051808373ffffffffffffffffffffffffffffffffffffffff1673ffffffffffffffffffffffffffffffffffffffff1681526020018281526020019250505060405180910390a150565b60606000808381526020019081526020016000208054806020026020016040519081016040528092919081815260200182805480156102aa57602002820191906000526020600020905b8160009054906101000a900473ffffffffffffffffffffffffffffffffffffffff1673ffffffffffffffffffffffffffffffffffffffff1681526020019060010190808311610260575b50505050509050919050565b60008082840190508381101515156102ca57fe5b80915050929150505600a165627a7a723058202da9838ab9ec5b10fc4b3c899c2d066ba09de3002f110bcf7cdedd99a2f3e8840029",
  "source": "pragma solidity ^0.4.21;\n\nimport \"./libs/SafeMath.sol\";\n\ncontract BlockSigner {\n    using SafeMath for uint256;\n\n    event Sign(address _signer, uint256 _blockNumber);\n\n    mapping(uint256 => address[]) blockSigners;\n\n    function sign(uint256 _blockNumber) external {\n        // consensus should validate all senders are validators, gas = 0\n        require(block.number >= _blockNumber);\n        require(block.number <= _blockNumber.add(990 * 2));\n        blockSigners[_blockNumber].push(msg.sender);\n\n        emit Sign(msg.sender, _blockNumber);\n    }\n\n    function getSigners(uint256 _blockNumber) public view returns(address[]) {\n        return blockSigners[_blockNumber];\n    }\n}\n",
  "sourcePath": "/home/vagrant/projects/tomomaster/contracts/BlockSigner.sol",
  "compiler": {
    "name": "solc",
    "version": "0.4.24+commit.e67f0147.Emscripten.clang"
  },
  "schemaVersion": "2.0.1",
  "updatedAt": "2018-07-11T02:53:58.234Z"
}