{
  "contractName": "TomoRandomize",
  "abi": [
    {
      "constant": true,
      "inputs": [],
      "name": "blockTimeSecret",
      "outputs": [
        {
          "name": "",
          "type": "uint256"
        }
      ],
      "payable": false,
      "stateMutability": "view",
      "type": "function"
    },
    {
      "constant": true,
      "inputs": [],
      "name": "blockTimeOpening",
      "outputs": [
        {
          "name": "",
          "type": "uint256"
        }
      ],
      "payable": false,
      "stateMutability": "view",
      "type": "function"
    },
    {
      "constant": true,
      "inputs": [],
      "name": "epochNumber",
      "outputs": [
        {
          "name": "",
          "type": "uint256"
        }
      ],
      "payable": false,
      "stateMutability": "view",
      "type": "function"
    },
    {
      "inputs": [
        {
          "name": "_epochNumber",
          "type": "uint256"
        },
        {
          "name": "_blockTimeSecret",
          "type": "uint256"
        },
        {
          "name": "_blockTimeOpening",
          "type": "uint256"
        }
      ],
      "payable": false,
      "stateMutability": "nonpayable",
      "type": "constructor"
    },
    {
      "constant": false,
      "inputs": [
        {
          "name": "_secret",
          "type": "bytes32[]"
        }
      ],
      "name": "setSecret",
      "outputs": [],
      "payable": false,
      "stateMutability": "nonpayable",
      "type": "function"
    },
    {
      "constant": false,
      "inputs": [
        {
          "name": "_opening",
          "type": "bytes32[]"
        }
      ],
      "name": "setOpening",
      "outputs": [],
      "payable": false,
      "stateMutability": "nonpayable",
      "type": "function"
    },
    {
      "constant": true,
      "inputs": [
        {
          "name": "_validator",
          "type": "address"
        }
      ],
      "name": "getSecret",
      "outputs": [
        {
          "name": "",
          "type": "bytes32[]"
        }
      ],
      "payable": false,
      "stateMutability": "view",
      "type": "function"
    },
    {
      "constant": true,
      "inputs": [
        {
          "name": "_validator",
          "type": "address"
        }
      ],
      "name": "getOpening",
      "outputs": [
        {
          "name": "",
          "type": "bytes32[]"
        }
      ],
      "payable": false,
      "stateMutability": "view",
      "type": "function"
    }
  ],
  "bytecode": "0x608060405234801561001057600080fd5b506040516060806107fc83398101806040528101908080519060200190929190805190602001909291908051906020019092919050505082600081905550806002819055508160018190555050505061078e8061006e6000396000f300608060405260043610610083576000357c0100000000000000000000000000000000000000000000000000000000900463ffffffff1680632141c7d914610088578063257b03e9146100ee578063284180fc1461011957806334d38600146101b157806337a52ecc14610217578063d442d6cc14610242578063f4145a83146102da575b600080fd5b34801561009457600080fd5b506100ec60048036038101908080359060200190820180359060200190808060200260200160405190810160405280939291908181526020018383602002808284378201915050505050509192919290505050610305565b005b3480156100fa57600080fd5b506101036103d0565b6040518082815260200191505060405180910390f35b34801561012557600080fd5b5061015a600480360381019080803573ffffffffffffffffffffffffffffffffffffffff1690602001909291905050506103d6565b6040518080602001828103825283818151815260200191508051906020019060200280838360005b8381101561019d578082015181840152602081019050610182565b505050509050019250505060405180910390f35b3480156101bd57600080fd5b50610215600480360381019080803590602001908201803590602001908080602002602001604051908101604052809392919081815260200183836020028082843782019150505050505091929192905050506104c6565b005b34801561022357600080fd5b5061022c610584565b6040518082815260200191505060405180910390f35b34801561024e57600080fd5b50610283600480360381019080803573ffffffffffffffffffffffffffffffffffffffff16906020019092919050505061058a565b6040518080602001828103825283818151815260200191508051906020019060200280838360005b838110156102c65780820151818401526020810190506102ab565b505050509050019250505060405180910390f35b3480156102e657600080fd5b506102ef61067a565b6040518082815260200191505060405180910390f35b600080600054835114151561031957600080fd5b43915061035761034860005461033a6000548661068090919063ffffffff16565b61069690919063ffffffff16565b836106d190919063ffffffff16565b90506001548111801561036c57506002548111155b151561037757600080fd5b82600460003373ffffffffffffffffffffffffffffffffffffffff1673ffffffffffffffffffffffffffffffffffffffff16815260200190815260200160002090805190602001906103ca9291906106ea565b50505050565b60015481565b606060008043915061041961040a6000546103fc6000548661068090919063ffffffff16565b61069690919063ffffffff16565b836106d190919063ffffffff16565b90506001548111151561042b57600080fd5b600360008573ffffffffffffffffffffffffffffffffffffffff1673ffffffffffffffffffffffffffffffffffffffff1681526020019081526020016000208054806020026020016040519081016040528092919081815260200182805480156104b857602002820191906000526020600020905b815460001916815260200190600101908083116104a0575b505050505092505050919050565b60008060005483511415156104da57600080fd5b4391506105186105096000546104fb6000548661068090919063ffffffff16565b61069690919063ffffffff16565b836106d190919063ffffffff16565b9050600154811115151561052b57600080fd5b82600360003373ffffffffffffffffffffffffffffffffffffffff1673ffffffffffffffffffffffffffffffffffffffff168152602001908152602001600020908051906020019061057e9291906106ea565b50505050565b60025481565b60606000804391506105cd6105be6000546105b06000548661068090919063ffffffff16565b61069690919063ffffffff16565b836106d190919063ffffffff16565b9050600254811115156105df57600080fd5b600460008573ffffffffffffffffffffffffffffffffffffffff1673ffffffffffffffffffffffffffffffffffffffff16815260200190815260200160002080548060200260200160405190810160405280929190818152602001828054801561066c57602002820191906000526020600020905b81546000191681526020019060010190808311610654575b505050505092505050919050565b60005481565b6000818381151561068d57fe5b04905092915050565b60008060008414156106ab57600091506106ca565b82840290508284828115156106bc57fe5b041415156106c657fe5b8091505b5092915050565b60008282111515156106df57fe5b818303905092915050565b82805482825590600052602060002090810192821561072c579160200282015b8281111561072b57825182906000191690559160200191906001019061070a565b5b509050610739919061073d565b5090565b61075f91905b8082111561075b576000816000905550600101610743565b5090565b905600a165627a7a723058201ab442f1b1f1dce2f7d6ec8bc0116124d8622940d8185bec7f7c6f092352f6d00029",
  "source": "pragma solidity ^0.4.21;\n\nimport \"./libs/SafeMath.sol\";\n\ncontract TomoRandomize {\n    using SafeMath for uint256;\n    uint256 public epochNumber;\n    uint256 public blockTimeSecret;\n    uint256 public blockTimeOpening;\n\n    mapping (address=>bytes32[]) randomSecret;\n    mapping (address=>bytes32[]) randomOpening;\n\n    constructor (uint256 _epochNumber, uint256 _blockTimeSecret, uint256 _blockTimeOpening) public {\n        epochNumber = _epochNumber;\n        blockTimeOpening = _blockTimeOpening;\n        blockTimeSecret = _blockTimeSecret;\n    }\n\n    function setSecret(bytes32[] _secret) public {\n        require(_secret.length == epochNumber);\n\n        uint256 _blockNum = block.number;\n        uint256 _epoch = _blockNum.sub(_blockNum.div(epochNumber).mul(epochNumber));\n\n        require(_epoch <= blockTimeSecret);\n\n        randomSecret[msg.sender] = _secret;\n    }\n\n    function setOpening(bytes32[] _opening) public {\n        require(_opening.length == epochNumber);\n\n        uint256 _blockNum = block.number;\n        uint256 _epoch = _blockNum.sub(_blockNum.div(epochNumber).mul(epochNumber));\n\n        require(_epoch > blockTimeSecret && _epoch <= blockTimeOpening);\n\n        randomOpening[msg.sender] = _opening;\n\n    }\n\n    function getSecret(address _validator) public view returns(bytes32[]) {\n        uint256 _blockNum = block.number;\n        uint256 _epoch = _blockNum.sub(_blockNum.div(epochNumber).mul(epochNumber));\n\n        require(_epoch > blockTimeSecret);\n\n        return randomSecret[_validator];\n    }\n\n    function getOpening(address _validator) public view returns(bytes32[]) {\n        uint256 _blockNum = block.number;\n        uint256 _epoch = _blockNum.sub(_blockNum.div(epochNumber).mul(epochNumber));\n\n        require(_epoch > blockTimeOpening);\n\n        return randomOpening[_validator];\n    }\n}\n",
  "sourcePath": "/app/contracts/TomoRandomize.sol",
  "compiler": {
    "name": "solc",
    "version": "0.4.24+commit.e67f0147.Emscripten.clang"
  },
  "schemaVersion": "2.0.1",
  "updatedAt": "2018-06-28T09:18:52.747Z"
}